{
  "contractName": "DBank",
  "abi": [
    {
      "inputs": [],
      "stateMutability": "nonpayable",
      "type": "constructor"
    },
    {
      "anonymous": false,
      "inputs": [
        {
          "indexed": true,
          "internalType": "address",
          "name": "account",
          "type": "address"
        },
        {
          "indexed": false,
          "internalType": "uint256",
          "name": "amount",
          "type": "uint256"
        }
      ],
      "name": "Deposit",
      "type": "event"
    },
    {
      "anonymous": false,
      "inputs": [
        {
          "indexed": true,
          "internalType": "address",
          "name": "from",
          "type": "address"
        },
        {
          "indexed": false,
          "internalType": "uint256",
          "name": "amount",
          "type": "uint256"
        },
        {
          "indexed": true,
          "internalType": "address",
          "name": "to",
          "type": "address"
        }
      ],
      "name": "Transfer",
      "type": "event"
    },
    {
      "anonymous": false,
      "inputs": [
        {
          "indexed": true,
          "internalType": "address",
          "name": "account",
          "type": "address"
        },
        {
          "indexed": false,
          "internalType": "uint256",
          "name": "amount",
          "type": "uint256"
        }
      ],
      "name": "Withdraw",
      "type": "event"
    },
    {
      "inputs": [
        {
          "internalType": "address",
          "name": "",
          "type": "address"
        }
      ],
      "name": "accounts",
      "outputs": [
        {
          "internalType": "uint256",
          "name": "deposit",
          "type": "uint256"
        },
        {
          "internalType": "uint256",
          "name": "balance",
          "type": "uint256"
        },
        {
          "internalType": "uint256",
          "name": "lastDeposit",
          "type": "uint256"
        },
        {
          "internalType": "uint256",
          "name": "lastWithDraw",
          "type": "uint256"
        },
        {
          "internalType": "address",
          "name": "accountHolder",
          "type": "address"
        }
      ],
      "stateMutability": "view",
      "type": "function"
    },
    {
      "inputs": [],
      "name": "owner",
      "outputs": [
        {
          "internalType": "address",
          "name": "",
          "type": "address"
        }
      ],
      "stateMutability": "view",
      "type": "function"
    },
    {
      "inputs": [
        {
          "internalType": "address",
          "name": "",
          "type": "address"
        },
        {
          "internalType": "uint256",
          "name": "",
          "type": "uint256"
        }
      ],
      "name": "transactions",
      "outputs": [
        {
          "internalType": "address",
          "name": "to",
          "type": "address"
        },
        {
          "internalType": "string",
          "name": "txType",
          "type": "string"
        },
        {
          "internalType": "uint256",
          "name": "amount",
          "type": "uint256"
        },
        {
          "internalType": "uint256",
          "name": "timestamp",
          "type": "uint256"
        },
        {
          "internalType": "address",
          "name": "from",
          "type": "address"
        }
      ],
      "stateMutability": "view",
      "type": "function"
    },
    {
      "inputs": [],
      "name": "deposit",
      "outputs": [],
      "stateMutability": "payable",
      "type": "function"
    },
    {
      "inputs": [
        {
          "internalType": "uint256",
          "name": "amount",
          "type": "uint256"
        }
      ],
      "name": "withdraw",
      "outputs": [],
      "stateMutability": "nonpayable",
      "type": "function"
    },
    {
      "inputs": [
        {
          "internalType": "address",
          "name": "to",
          "type": "address"
        },
        {
          "internalType": "uint256",
          "name": "amount",
          "type": "uint256"
        }
      ],
      "name": "transfer",
      "outputs": [],
      "stateMutability": "nonpayable",
      "type": "function"
    }
  ],
  "bytecode": "0x608060405234801561000f575f80fd5b503360025f6101000a81548173ffffffffffffffffffffffffffffffffffffffff021916908373ffffffffffffffffffffffffffffffffffffffff16021790555061146e8061005d5f395ff3fe608060405260043610610054575f3560e01c806314538128146100585780632e1a7d4d146100985780635e5c06e2146100c05780638da5cb5b14610100578063a9059cbb1461012a578063d0e30db014610152575b5f80fd5b348015610063575f80fd5b5061007e60048036038101906100799190610da2565b61015c565b60405161008f959493929190610e88565b60405180910390f35b3480156100a3575f80fd5b506100be60048036038101906100b99190610ee0565b61026c565b005b3480156100cb575f80fd5b506100e660048036038101906100e19190610f0b565b61054c565b6040516100f7959493929190610f36565b60405180910390f35b34801561010b575f80fd5b5061011461059c565b6040516101219190610f87565b60405180910390f35b348015610135575f80fd5b50610150600480360381019061014b9190610da2565b6105c1565b005b61015a610a62565b005b6001602052815f5260405f208181548110610175575f80fd5b905f5260205f2090600502015f9150915050805f015f9054906101000a900473ffffffffffffffffffffffffffffffffffffffff16908060010180546101ba90610fcd565b80601f01602080910402602001604051908101604052809291908181526020018280546101e690610fcd565b80156102315780601f1061020857610100808354040283529160200191610231565b820191905f5260205f20905b81548152906001019060200180831161021457829003601f168201915b505050505090806002015490806003015490806004015f9054906101000a900473ffffffffffffffffffffffffffffffffffffffff16905085565b5f805f3373ffffffffffffffffffffffffffffffffffffffff1673ffffffffffffffffffffffffffffffffffffffff1681526020019081526020015f20905081816001015410156102f2576040517f08c379a00000000000000000000000000000000000000000000000000000000081526004016102e990611047565b60405180910390fd5b81816001015f8282546103059190611092565b925050819055504281600301819055503373ffffffffffffffffffffffffffffffffffffffff166108fc8390811502906040515f60405180830381858888f19350505050158015610358573d5f803e3d5ffd5b5060015f3373ffffffffffffffffffffffffffffffffffffffff1673ffffffffffffffffffffffffffffffffffffffff1681526020019081526020015f206040518060a001604052803373ffffffffffffffffffffffffffffffffffffffff1681526020016040518060400160405280600881526020017f576974686472617700000000000000000000000000000000000000000000000081525081526020018481526020014281526020013073ffffffffffffffffffffffffffffffffffffffff16815250908060018154018082558091505060019003905f5260205f2090600502015f909190919091505f820151815f015f6101000a81548173ffffffffffffffffffffffffffffffffffffffff021916908373ffffffffffffffffffffffffffffffffffffffff160217905550602082015181600101908161049d919061128f565b5060408201518160020155606082015181600301556080820151816004015f6101000a81548173ffffffffffffffffffffffffffffffffffffffff021916908373ffffffffffffffffffffffffffffffffffffffff16021790555050503373ffffffffffffffffffffffffffffffffffffffff167f884edad9ce6fa2440d8a54cc123490eb96d2768479d49ff9c7366125a942436483604051610540919061135e565b60405180910390a25050565b5f602052805f5260405f205f91509050805f015490806001015490806002015490806003015490806004015f9054906101000a900473ffffffffffffffffffffffffffffffffffffffff16905085565b60025f9054906101000a900473ffffffffffffffffffffffffffffffffffffffff1681565b5f805f3373ffffffffffffffffffffffffffffffffffffffff1673ffffffffffffffffffffffffffffffffffffffff1681526020019081526020015f2090508181600101541015610647576040517f08c379a000000000000000000000000000000000000000000000000000000000815260040161063e90611047565b60405180910390fd5b81816001015f82825461065a9190611092565b92505081905550815f808573ffffffffffffffffffffffffffffffffffffffff1673ffffffffffffffffffffffffffffffffffffffff1681526020019081526020015f206001015f8282546106af9190611377565b9250508190555060015f3373ffffffffffffffffffffffffffffffffffffffff1673ffffffffffffffffffffffffffffffffffffffff1681526020019081526020015f206040518060a001604052808573ffffffffffffffffffffffffffffffffffffffff1681526020016040518060400160405280600881526020017f5472616e7366657200000000000000000000000000000000000000000000000081525081526020018481526020014281526020013373ffffffffffffffffffffffffffffffffffffffff16815250908060018154018082558091505060019003905f5260205f2090600502015f909190919091505f820151815f015f6101000a81548173ffffffffffffffffffffffffffffffffffffffff021916908373ffffffffffffffffffffffffffffffffffffffff16021790555060208201518160010190816107fa919061128f565b5060408201518160020155606082015181600301556080820151816004015f6101000a81548173ffffffffffffffffffffffffffffffffffffffff021916908373ffffffffffffffffffffffffffffffffffffffff160217905550505060015f8473ffffffffffffffffffffffffffffffffffffffff1673ffffffffffffffffffffffffffffffffffffffff1681526020019081526020015f206040518060a001604052808573ffffffffffffffffffffffffffffffffffffffff1681526020016040518060400160405280600881526020017f5472616e7366657200000000000000000000000000000000000000000000000081525081526020018481526020014281526020013373ffffffffffffffffffffffffffffffffffffffff16815250908060018154018082558091505060019003905f5260205f2090600502015f909190919091505f820151815f015f6101000a81548173ffffffffffffffffffffffffffffffffffffffff021916908373ffffffffffffffffffffffffffffffffffffffff160217905550602082015181600101908161099b919061128f565b5060408201518160020155606082015181600301556080820151816004015f6101000a81548173ffffffffffffffffffffffffffffffffffffffff021916908373ffffffffffffffffffffffffffffffffffffffff16021790555050508273ffffffffffffffffffffffffffffffffffffffff163373ffffffffffffffffffffffffffffffffffffffff167f138dbc8474f748db86063dcef24cef1495bc73385a946f8d691128085e5ebec284604051610a55919061135e565b60405180910390a3505050565b5f3411610aa4576040517f08c379a0000000000000000000000000000000000000000000000000000000008152600401610a9b9061141a565b60405180910390fd5b5f805f3373ffffffffffffffffffffffffffffffffffffffff1673ffffffffffffffffffffffffffffffffffffffff1681526020019081526020015f20905034816001015f828254610af69190611377565b9250508190555034815f015f828254610b0f9190611377565b9250508190555042816002018190555060015f3373ffffffffffffffffffffffffffffffffffffffff1673ffffffffffffffffffffffffffffffffffffffff1681526020019081526020015f206040518060a001604052803073ffffffffffffffffffffffffffffffffffffffff1681526020016040518060400160405280600781526020017f4465706f7369740000000000000000000000000000000000000000000000000081525081526020013481526020014281526020013373ffffffffffffffffffffffffffffffffffffffff16815250908060018154018082558091505060019003905f5260205f2090600502015f909190919091505f820151815f015f6101000a81548173ffffffffffffffffffffffffffffffffffffffff021916908373ffffffffffffffffffffffffffffffffffffffff1602179055506020820151816001019081610c63919061128f565b5060408201518160020155606082015181600301556080820151816004015f6101000a81548173ffffffffffffffffffffffffffffffffffffffff021916908373ffffffffffffffffffffffffffffffffffffffff16021790555050503373ffffffffffffffffffffffffffffffffffffffff167fe1fffcc4923d04b559f4d29a8bfc6cda04eb5b0d3c460751c2402c5c5cc9109c34604051610d06919061135e565b60405180910390a250565b5f80fd5b5f73ffffffffffffffffffffffffffffffffffffffff82169050919050565b5f610d3e82610d15565b9050919050565b610d4e81610d34565b8114610d58575f80fd5b50565b5f81359050610d6981610d45565b92915050565b5f819050919050565b610d8181610d6f565b8114610d8b575f80fd5b50565b5f81359050610d9c81610d78565b92915050565b5f8060408385031215610db857610db7610d11565b5b5f610dc585828601610d5b565b9250506020610dd685828601610d8e565b9150509250929050565b610de981610d34565b82525050565b5f81519050919050565b5f82825260208201905092915050565b5f5b83811015610e26578082015181840152602081019050610e0b565b5f8484015250505050565b5f601f19601f8301169050919050565b5f610e4b82610def565b610e558185610df9565b9350610e65818560208601610e09565b610e6e81610e31565b840191505092915050565b610e8281610d6f565b82525050565b5f60a082019050610e9b5f830188610de0565b8181036020830152610ead8187610e41565b9050610ebc6040830186610e79565b610ec96060830185610e79565b610ed66080830184610de0565b9695505050505050565b5f60208284031215610ef557610ef4610d11565b5b5f610f0284828501610d8e565b91505092915050565b5f60208284031215610f2057610f1f610d11565b5b5f610f2d84828501610d5b565b91505092915050565b5f60a082019050610f495f830188610e79565b610f566020830187610e79565b610f636040830186610e79565b610f706060830185610e79565b610f7d6080830184610de0565b9695505050505050565b5f602082019050610f9a5f830184610de0565b92915050565b7f4e487b71000000000000000000000000000000000000000000000000000000005f52602260045260245ffd5b5f6002820490506001821680610fe457607f821691505b602082108103610ff757610ff6610fa0565b5b50919050565b7f496e73756666696369656e742062616c616e63650000000000000000000000005f82015250565b5f611031601483610df9565b915061103c82610ffd565b602082019050919050565b5f6020820190508181035f83015261105e81611025565b9050919050565b7f4e487b71000000000000000000000000000000000000000000000000000000005f52601160045260245ffd5b5f61109c82610d6f565b91506110a783610d6f565b92508282039050818111156110bf576110be611065565b5b92915050565b7f4e487b71000000000000000000000000000000000000000000000000000000005f52604160045260245ffd5b5f819050815f5260205f209050919050565b5f6020601f8301049050919050565b5f82821b905092915050565b5f6008830261114e7fffffffffffffffffffffffffffffffffffffffffffffffffffffffffffffffff82611113565b6111588683611113565b95508019841693508086168417925050509392505050565b5f819050919050565b5f61119361118e61118984610d6f565b611170565b610d6f565b9050919050565b5f819050919050565b6111ac83611179565b6111c06111b88261119a565b84845461111f565b825550505050565b5f90565b6111d46111c8565b6111df8184846111a3565b505050565b5b81811015611202576111f75f826111cc565b6001810190506111e5565b5050565b601f82111561124757611218816110f2565b61122184611104565b81016020851015611230578190505b61124461123c85611104565b8301826111e4565b50505b505050565b5f82821c905092915050565b5f6112675f198460080261124c565b1980831691505092915050565b5f61127f8383611258565b9150826002028217905092915050565b61129882610def565b67ffffffffffffffff8111156112b1576112b06110c5565b5b6112bb8254610fcd565b6112c6828285611206565b5f60209050601f8311600181146112f7575f84156112e5578287015190505b6112ef8582611274565b865550611356565b601f198416611305866110f2565b5f5b8281101561132c57848901518255600182019150602085019450602081019050611307565b868310156113495784890151611345601f891682611258565b8355505b6001600288020188555050505b505050505050565b5f6020820190506113715f830184610e79565b92915050565b5f61138182610d6f565b915061138c83610d6f565b92508282019050808211156113a4576113a3611065565b5b92915050565b7f4465706f736974206d7573742062652067726561746572207468616e207a65725f8201527f6f00000000000000000000000000000000000000000000000000000000000000602082015250565b5f611404602183610df9565b915061140f826113aa565b604082019050919050565b5f6020820190508181035f830152611431816113f8565b905091905056fea2646970667358221220401f2f06e8e4139941da6c1dbd01992b2561316c86c301e7f93d359bc793e7d764736f6c63430008150033",
  "immutableReferences": {},
  "source": "// SPDX-License-Identifier: MIT\r\npragma solidity ^0.8.21;\r\n\r\ncontract DBank {\r\n\r\n    struct Transaction {\r\n        address to;\r\n        string txType;\r\n        uint256 amount;\r\n        uint256 timestamp;\r\n        address from;\r\n    }\r\n\r\n    struct Account {\r\n        uint256 deposit;\r\n        uint256 balance;\r\n        uint256 lastDeposit;\r\n        uint256 lastWithDraw;\r\n        address accountHolder;\r\n    }\r\n\r\n    mapping(address => Account) public accounts;\r\n    mapping(address => Transaction[]) public transactions;\r\n\r\n    event Withdraw(address indexed account, uint256 amount);\r\n    event Deposit(address indexed account, uint256 amount);\r\n    event Transfer(address indexed from, uint256 amount, address indexed to);\r\n\r\n    address public owner;\r\n\r\n    modifier onlyOwner {\r\n        require(owner == msg.sender, \"It is the owner's contract\");\r\n        _;\r\n    }\r\n\r\n    constructor() {\r\n        owner = msg.sender; // Set the owner to the address deploying the contract\r\n    }\r\n\r\n    // Deposit function for adding funds to an account\r\n    function deposit() public payable {\r\n        require(msg.value > 0, \"Deposit must be greater than zero\");\r\n\r\n        // Update account information\r\n        Account storage userAccount = accounts[msg.sender];\r\n        userAccount.balance += msg.value;\r\n        userAccount.deposit += msg.value;\r\n        userAccount.lastDeposit = block.timestamp;\r\n\r\n        // Log the transaction\r\n        transactions[msg.sender].push(Transaction({\r\n            to: address(this),\r\n            txType: \"Deposit\",\r\n            amount: msg.value,\r\n            timestamp: block.timestamp,\r\n            from: msg.sender\r\n        }));\r\n\r\n        // Emit deposit event\r\n        emit Deposit(msg.sender, msg.value);\r\n    }\r\n\r\n    // Withdraw function to allow users to withdraw funds\r\n    function withdraw(uint256 amount) public {\r\n        Account storage userAccount = accounts[msg.sender];\r\n\r\n        // Check if the user has enough balance\r\n        require(userAccount.balance >= amount, \"Insufficient balance\");\r\n\r\n        // Update account balance and last withdrawal time\r\n        userAccount.balance -= amount;\r\n        userAccount.lastWithDraw = block.timestamp;\r\n\r\n        // Transfer the amount to the user\r\n        payable(msg.sender).transfer(amount);\r\n\r\n        // Log the transaction\r\n        transactions[msg.sender].push(Transaction({\r\n            to: msg.sender,\r\n            txType: \"Withdraw\",\r\n            amount: amount,\r\n            timestamp: block.timestamp,\r\n            from: address(this)\r\n        }));\r\n\r\n        // Emit the withdraw event\r\n        emit Withdraw(msg.sender, amount);\r\n    }\r\n\r\n    // Transfer function to allow sending funds to another address\r\n    function transfer(address to, uint256 amount) public {\r\n        Account storage userAccount = accounts[msg.sender];\r\n\r\n        // Ensure sender has enough balance\r\n        require(userAccount.balance >= amount, \"Insufficient balance\");\r\n\r\n        // Update sender and receiver balances\r\n        userAccount.balance -= amount;\r\n        accounts[to].balance += amount;\r\n\r\n        // Log the transaction for both sender and receiver\r\n        transactions[msg.sender].push(Transaction({\r\n            to: to,\r\n            txType: \"Transfer\",\r\n            amount: amount,\r\n            timestamp: block.timestamp,\r\n            from: msg.sender\r\n        }));\r\n\r\n        transactions[to].push(Transaction({\r\n            to: to,\r\n            txType: \"Transfer\",\r\n            amount: amount,\r\n            timestamp: block.timestamp,\r\n            from: msg.sender\r\n        }));\r\n\r\n        // Emit the transfer event\r\n        emit Transfer(msg.sender, amount, to);\r\n    }\r\n}\r\n",
  "sourcePath": "C:\\Users\\HP\\D_BANK\\contracts\\Dbank.sol",
  "compiler": {
    "name": "solc",
    "version": "0.8.21+commit.d9974bed.Emscripten.clang"
  },
  "schemaVersion": "3.4.16",
  "updatedAt": "2024-09-10T02:11:57.297Z",
  "devdoc": {
    "kind": "dev",
    "methods": {},
    "version": 1
  },
  "userdoc": {
    "kind": "user",
    "methods": {},
    "version": 1
  }
}